:100000000C945D000C9485000C9485000C94850084
:100010000C9485000C9485000C9485000C9485004C
:100020000C9485000C9485000C9485000C9485003C
:100030000C9485000C9485000C9485000C9485002C
:100040000C94B6000C9485000C9475030C94A703D3
:100050000C9485000C9485000C9485000C9485000C
:100060000C9485000C94850000000008000201003B
:100070000003040700000000000000000102040863
:100080001020408001020408102001020408102002
:10009000040404040404040402020202020203032E
:1000A0000303030300000000250028002B000000CC
:1000B0000000240027002A00D70311241FBECFEF21
:1000C000D8E0DEBFCDBF11E0A0E0B1E0E2E5F9E0AD
:1000D00002C005900D92A036B107D9F722E0A0E644
:1000E000B1E001C01D92A630B207E1F710E0CAEB03
:1000F000D0E004C02297FE010E94A304C83BD107B0
:10010000C9F70E946F040C94A7040C94000026E029
:1001100040E855E260E070E089E691E00E94130358
:1001200061E08DE00C94C10180910001882339F0D9
:1001300061E08DE00E94FA0161E071E006C060E0DC
:100140008DE00E94FA016FE171E089E691E00E9482
:100150005C0464EF71E080E090E00E9423018091F4
:10016000000191E089278093000108951F920F926A
:100170000FB60F9211242F933F938F939F93AF93BA
:10018000BF938091610190916201A0916301B09150
:1001900064013091600123E0230F2D3720F4019694
:1001A000A11DB11D05C026E8230F0296A11DB11D9A
:1001B000209360018093610190936201A093630199
:1001C000B09364018091650190916601A0916701EF
:1001D000B09168010196A11DB11D809365019093B6
:1001E0006601A0936701B0936801BF91AF919F91A1
:1001F0008F913F912F910F900FBE0F901F901895E8
:100200003FB7F8948091650190916601A0916701D4
:10021000B091680126B5A89B05C02F3F19F0019643
:10022000A11DB11D3FBF6627782F892F9A2F620F1E
:10023000711D811D911D42E0660F771F881F991F58
:100240004A95D1F708958F929F92AF92BF92CF9225
:10025000DF92EF92FF926B017C010E9400014B0143
:100260005C01C114D104E104F104F1F00E947E04A8
:100270000E940001681979098A099B09683E734048
:100280008105910570F321E0C21AD108E108F10857
:1002900088EE880E83E0981EA11CB11CC114D10405
:1002A000E104F10429F7DDCFFF90EF90DF90CF90CC
:1002B000BF90AF909F908F900895789484B582609E
:1002C00084BD84B5816084BD85B5826085BD85B5FA
:1002D000816085BDEEE6F0E0808181608083E1E8A9
:1002E000F0E01082808182608083808181608083E1
:1002F000E0E8F0E0808181608083E1EBF0E08081E4
:1003000084608083E0EBF0E0808181608083EAE7B5
:10031000F0E080818460808380818260808380813E
:10032000816080838081806880831092C1000895FD
:10033000833081F028F4813099F08230A1F0089563
:100340008730A9F08830B9F08430D1F480918000F2
:100350008F7D03C0809180008F7780938000089507
:1003600084B58F7702C084B58F7D84BD0895809158
:10037000B0008F7703C08091B0008F7D8093B00074
:100380000895CF93DF9390E0FC01E458FF4F249150
:10039000FC01E057FF4F8491882349F190E0880FDA
:1003A000991FFC01E255FF4FA591B4918C559F4FC9
:1003B000FC01C591D4919FB7611108C0F8948C914C
:1003C000209582238C93888182230AC0623051F465
:1003D000F8948C91322F309583238C938881822BD3
:1003E000888304C0F8948C91822B8C939FBFDF91FB
:1003F000CF9108950F931F93CF93DF931F92CDB7A3
:10040000DEB7282F30E0F901E859FF4F8491F90158
:10041000E458FF4F1491F901E057FF4F0491002376
:10042000C9F0882321F069830E9498016981E02F37
:10043000F0E0EE0FFF1FEC55FF4FA591B4919FB771
:10044000F8948C91611103C01095812301C0812B18
:100450008C939FBF0F90DF91CF911F910F910895C3
:10046000FC01818D228D90E0805C9F4F821B910961
:100470008F7399270895FC01918D828D981731F023
:10048000828DE80FF11D858D90E008958FEF9FEF2D
:100490000895FC01918D828D981761F0828DDF01A6
:1004A000A80FB11D5D968C91928D9F5F9F73928F67
:1004B00090E008958FEF9FEF08958DEC93E0892BE6
:1004C00049F080E090E0892B29F00E94CD03811152
:1004D0000C9400000895FC01848DDF01A80FB11D6C
:1004E000A35ABF4F2C91848D90E001968F7399276A
:1004F000848FA689B7892C93A089B1898C91806457
:100500008C93938D848D981306C00288F389E02D17
:1005100080818F7D80830895CF93DF93EC01888D58
:100520008823C9F0EA89FB89808185FD05C0A889F7
:10053000B9898C9186FD0FC00FB607FCF5CF80817D
:1005400085FFF2CFA889B9898C9185FFEDCFCE01C7
:100550000E946B02E7CFDF91CF910895CF92DF9297
:10056000FF920F931F93CF93DF931F92CDB7DEB708
:100570006C0181E0D60158968C9358975B969C91BC
:100580005B975C968C915C97981307C05096ED91A1
:10059000FC915197808185FD2EC0F601038D10E0FE
:1005A0000F5F1F4F0F731127F02EF601848DF81285
:1005B00011C00FB607FCF9CFD6015096ED91FC9112
:1005C0005197808185FFF1CFC60169830E946B023C
:1005D0006981EBCF838DE80FF11DE35AFF4F6083F4
:1005E000D6015B960C935B975296ED91FC915397D5
:1005F000808180620CC0D6015696ED91FC91579790
:1006000060835096ED91FC91519780818064808346
:1006100081E090E00F90DF91CF911F910F91FF90BB
:10062000DF90CF900895BF92CF92DF92EF92FF922A
:10063000CF93DF93EC016A017B01B22EE889F9893F
:1006400082E08083411581EE580761057105A1F0B4
:1006500060E079E08DE390E0A70196010E947F04BD
:1006600021503109410951095695479537952795EC
:10067000211580E1380798F0E889F989108260E84F
:1006800074E88EE190E0A70196010E947F0421505A
:100690003109410951095695479537952795EC85BC
:1006A000FD853083EE85FF852083188EEC89FD89DA
:1006B000B082EA89FB89808180618083EA89FB8935
:1006C000808188608083EA89FB898081806880835B
:1006D000EA89FB8980818F7D8083DF91CF91FF90B4
:1006E000EF90DF90CF90BF9008951F920F920FB6BA
:1006F0000F9211242F938F939F93EF93FF93E09189
:100700007901F0917A018081E0917F01F09180017F
:1007100082FD12C09081809182018F5F8F73209142
:100720008301821751F0E0918201F0E0E759FE4F1A
:10073000958F8093820101C08081FF91EF919F91FD
:100740008F912F910F900FBE0F901F9018951F92B1
:100750000F920FB60F9211242F933F934F935F93F5
:100760006F937F938F939F93AF93BF93EF93FF9379
:1007700089E691E00E946B02FF91EF91BF91AF91EA
:100780009F918F917F916F915F914F913F912F91A9
:100790000F900FBE0F901F90189589E691E00E9470
:1007A000300221E0892B09F420E0822F0895109275
:1007B0006C0110926B0188EE93E0A0E0B0E08093B2
:1007C0006D0190936E01A0936F01B093700183E46B
:1007D00091E090936A018093690185EC90E0909399
:1007E00076018093750184EC90E09093780180937A
:1007F000770180EC90E090937A018093790181EC0D
:1008000090E090937C0180937B0182EC90E0909348
:100810007E0180937D0186EC90E09093800180932F
:100820007F01109282011092830110928401109234
:1008300085010895CF92DF92EF92FF920F931F935D
:10084000CF93DF937C016A01EB0100E010E00C150F
:100850001D0571F06991D701ED91FC910190F08136
:10086000E02DC7010995892B19F00F5F1F4FEFCFBE
:10087000C801DF91CF911F910F91FF90EF90DF9012
:10088000CF9008956115710581F0DB010D90002076
:10089000E9F7AD0141505109461B570BDC01ED91C1
:1008A000FC910280F381E02D099480E090E00895AE
:1008B0006FE471E00C9442040F931F93CF93DF9386
:1008C000EC010E9442048C01CE010E945804800F6A
:1008D000911FDF91CF911F910F91089508950E946C
:1008E0005D010E946E040E948700CDE5D2E00E9467
:1008F00094002097E1F30E945D02F9CF0895A1E2F0
:100900001A2EAA1BBB1BFD010DC0AA1FBB1FEE1F89
:10091000FF1FA217B307E407F50720F0A21BB30BD4
:10092000E40BF50B661F771F881F991F1A9469F750
:1009300060957095809590959B01AC01BD01CF01AC
:100940000895EE0FFF1F0590F491E02D0994F8949F
:02095000FFCFD7
:10095200014F204C454420646120706F7274612005
:100962003133206573746120616365736F21004FB9
:10097200204C454420646120706F727461203133D1
:100982002065737461206170616761646F2100008A
:10099200000000AE021A04300249023B028C020D32
:1009A2000A006E616E00696E66006F7666002E0048
:00000001FF
